{
	"data": {
		"bytecode": {
			"linkReferences": {},
			"object": "608060405234801561001057600080fd5b50600080819055506101b6806100276000396000f3fe60806040526004361061005c576000357c01000000000000000000000000000000000000000000000000000000009004806306661abd146100615780632baeceb71461008c578063a87d942c146100a3578063d09de08a146100ce575b600080fd5b34801561006d57600080fd5b506100766100e5565b6040518082815260200191505060405180910390f35b34801561009857600080fd5b506100a16100eb565b005b3480156100af57600080fd5b506100b8610136565b6040518082815260200191505060405180910390f35b3480156100da57600080fd5b506100e361013f565b005b60005481565b600160008082825403925050819055507f32814a5bdfd1b8c3d76c49c54e043d6e8aa93d197a09e16599b567135503f7486000546040518082815260200191505060405180910390a1565b60008054905090565b600160008082825401925050819055507f51af157c2eee40f68107a47a49c32fbbeb0a3c9e5cd37aa56e88e6be92368a816000546040518082815260200191505060405180910390a156fea165627a7a72305820833ce68f999bf727232a059635439711cb05943877d1b7063767c0ac5d57b86a0029",
			"opcodes": "PUSH1 0x80 PUSH1 0x40 MSTORE CALLVALUE DUP1 ISZERO PUSH2 0x10 JUMPI PUSH1 0x0 DUP1 REVERT JUMPDEST POP PUSH1 0x0 DUP1 DUP2 SWAP1 SSTORE POP PUSH2 0x1B6 DUP1 PUSH2 0x27 PUSH1 0x0 CODECOPY PUSH1 0x0 RETURN INVALID PUSH1 0x80 PUSH1 0x40 MSTORE PUSH1 0x4 CALLDATASIZE LT PUSH2 0x5C JUMPI PUSH1 0x0 CALLDATALOAD PUSH29 0x100000000000000000000000000000000000000000000000000000000 SWAP1 DIV DUP1 PUSH4 0x6661ABD EQ PUSH2 0x61 JUMPI DUP1 PUSH4 0x2BAECEB7 EQ PUSH2 0x8C JUMPI DUP1 PUSH4 0xA87D942C EQ PUSH2 0xA3 JUMPI DUP1 PUSH4 0xD09DE08A EQ PUSH2 0xCE JUMPI JUMPDEST PUSH1 0x0 DUP1 REVERT JUMPDEST CALLVALUE DUP1 ISZERO PUSH2 0x6D JUMPI PUSH1 0x0 DUP1 REVERT JUMPDEST POP PUSH2 0x76 PUSH2 0xE5 JUMP JUMPDEST PUSH1 0x40 MLOAD DUP1 DUP3 DUP2 MSTORE PUSH1 0x20 ADD SWAP2 POP POP PUSH1 0x40 MLOAD DUP1 SWAP2 SUB SWAP1 RETURN JUMPDEST CALLVALUE DUP1 ISZERO PUSH2 0x98 JUMPI PUSH1 0x0 DUP1 REVERT JUMPDEST POP PUSH2 0xA1 PUSH2 0xEB JUMP JUMPDEST STOP JUMPDEST CALLVALUE DUP1 ISZERO PUSH2 0xAF JUMPI PUSH1 0x0 DUP1 REVERT JUMPDEST POP PUSH2 0xB8 PUSH2 0x136 JUMP JUMPDEST PUSH1 0x40 MLOAD DUP1 DUP3 DUP2 MSTORE PUSH1 0x20 ADD SWAP2 POP POP PUSH1 0x40 MLOAD DUP1 SWAP2 SUB SWAP1 RETURN JUMPDEST CALLVALUE DUP1 ISZERO PUSH2 0xDA JUMPI PUSH1 0x0 DUP1 REVERT JUMPDEST POP PUSH2 0xE3 PUSH2 0x13F JUMP JUMPDEST STOP JUMPDEST PUSH1 0x0 SLOAD DUP2 JUMP JUMPDEST PUSH1 0x1 PUSH1 0x0 DUP1 DUP3 DUP3 SLOAD SUB SWAP3 POP POP DUP2 SWAP1 SSTORE POP PUSH32 0x32814A5BDFD1B8C3D76C49C54E043D6E8AA93D197A09E16599B567135503F748 PUSH1 0x0 SLOAD PUSH1 0x40 MLOAD DUP1 DUP3 DUP2 MSTORE PUSH1 0x20 ADD SWAP2 POP POP PUSH1 0x40 MLOAD DUP1 SWAP2 SUB SWAP1 LOG1 JUMP JUMPDEST PUSH1 0x0 DUP1 SLOAD SWAP1 POP SWAP1 JUMP JUMPDEST PUSH1 0x1 PUSH1 0x0 DUP1 DUP3 DUP3 SLOAD ADD SWAP3 POP POP DUP2 SWAP1 SSTORE POP PUSH32 0x51AF157C2EEE40F68107A47A49C32FBBEB0A3C9E5CD37AA56E88E6BE92368A81 PUSH1 0x0 SLOAD PUSH1 0x40 MLOAD DUP1 DUP3 DUP2 MSTORE PUSH1 0x20 ADD SWAP2 POP POP PUSH1 0x40 MLOAD DUP1 SWAP2 SUB SWAP1 LOG1 JUMP INVALID LOG1 PUSH6 0x627A7A723058 KECCAK256 DUP4 EXTCODECOPY 0xe6 DUP16 SWAP10 SWAP12 0xf7 0x27 0x23 0x2a SDIV SWAP7 CALLDATALOAD NUMBER SWAP8 GT 0xcb SDIV SWAP5 CODESIZE PUSH24 0xD1B7063767C0AC5D57B86A00290000000000000000000000 "
		},
		"gasEstimates": {
			"creation": {
				"codeDepositCost": "87600",
				"executionCost": "5149",
				"totalCost": "92749"
			},
			"external": {
				"count()": "388",
				"decrement()": "21649",
				"getCount()": "440",
				"increment()": "21693"
			}
		},
		"methodIdentifiers": {
			"count()": "06661abd",
			"decrement()": "2baeceb7",
			"getCount()": "a87d942c",
			"increment()": "d09de08a"
		}
	},
	"abi": [
		{
			"constant": true,
			"inputs": [],
			"name": "count",
			"outputs": [
				{
					"name": "",
					"type": "uint256"
				}
			],
			"payable": false,
			"stateMutability": "view",
			"type": "function"
		},
		{
			"constant": false,
			"inputs": [],
			"name": "decrement",
			"outputs": [],
			"payable": false,
			"stateMutability": "nonpayable",
			"type": "function"
		},
		{
			"constant": true,
			"inputs": [],
			"name": "getCount",
			"outputs": [
				{
					"name": "",
					"type": "uint256"
				}
			],
			"payable": false,
			"stateMutability": "view",
			"type": "function"
		},
		{
			"constant": false,
			"inputs": [],
			"name": "increment",
			"outputs": [],
			"payable": false,
			"stateMutability": "nonpayable",
			"type": "function"
		},
		{
			"inputs": [],
			"payable": false,
			"stateMutability": "nonpayable",
			"type": "constructor"
		},
		{
			"anonymous": false,
			"inputs": [
				{
					"indexed": false,
					"name": "value",
					"type": "uint256"
				}
			],
			"name": "Increment",
			"type": "event"
		},
		{
			"anonymous": false,
			"inputs": [
				{
					"indexed": false,
					"name": "value",
					"type": "uint256"
				}
			],
			"name": "Decrement",
			"type": "event"
		}
	]
}